{
  "_format": "hh-sol-artifact-1",
  "contractName": "Deposit",
  "sourceName": "src/backend/contracts/Deposit.sol",
  "abi": [
    {
      "inputs": [
        {
          "internalType": "address",
          "name": "_guarantyOracleContract",
          "type": "address"
        },
        {
          "internalType": "address",
          "name": "_depositor",
          "type": "address"
        }
      ],
      "stateMutability": "nonpayable",
      "type": "constructor"
    },
    {
      "anonymous": false,
      "inputs": [
        {
          "indexed": true,
          "internalType": "address",
          "name": "previousOwner",
          "type": "address"
        },
        {
          "indexed": true,
          "internalType": "address",
          "name": "newOwner",
          "type": "address"
        }
      ],
      "name": "OwnershipTransferred",
      "type": "event"
    },
    {
      "inputs": [
        {
          "internalType": "uint256",
          "name": "_amount",
          "type": "uint256"
        }
      ],
      "name": "lockFunds",
      "outputs": [],
      "stateMutability": "nonpayable",
      "type": "function"
    },
    {
      "inputs": [],
      "name": "owner",
      "outputs": [
        {
          "internalType": "address",
          "name": "",
          "type": "address"
        }
      ],
      "stateMutability": "view",
      "type": "function"
    },
    {
      "inputs": [],
      "name": "renounceOwnership",
      "outputs": [],
      "stateMutability": "nonpayable",
      "type": "function"
    },
    {
      "inputs": [
        {
          "internalType": "address",
          "name": "_user",
          "type": "address"
        }
      ],
      "name": "setDepositors",
      "outputs": [],
      "stateMutability": "nonpayable",
      "type": "function"
    },
    {
      "inputs": [
        {
          "internalType": "address",
          "name": "newOwner",
          "type": "address"
        }
      ],
      "name": "transferOwnership",
      "outputs": [],
      "stateMutability": "nonpayable",
      "type": "function"
    },
    {
      "inputs": [
        {
          "internalType": "uint256",
          "name": "_amount",
          "type": "uint256"
        }
      ],
      "name": "withdrawFunds",
      "outputs": [],
      "stateMutability": "nonpayable",
      "type": "function"
    }
  ],
  "bytecode": "0x608060405234801561001057600080fd5b50604051610d3f380380610d3f833981810160405281019061003291906101b8565b61004e6100436100d760201b60201c565b6100df60201b60201c565b81600160006101000a81548173ffffffffffffffffffffffffffffffffffffffff021916908373ffffffffffffffffffffffffffffffffffffffff16021790555080600260006101000a81548173ffffffffffffffffffffffffffffffffffffffff021916908373ffffffffffffffffffffffffffffffffffffffff160217905550505061023d565b600033905090565b60008060009054906101000a900473ffffffffffffffffffffffffffffffffffffffff169050816000806101000a81548173ffffffffffffffffffffffffffffffffffffffff021916908373ffffffffffffffffffffffffffffffffffffffff1602179055508173ffffffffffffffffffffffffffffffffffffffff168173ffffffffffffffffffffffffffffffffffffffff167f8be0079c531659141344cd1fd0a4f28419497f9722a3daafe3b4186f6b6457e060405160405180910390a35050565b6000815190506101b281610226565b92915050565b600080604083850312156101cb57600080fd5b60006101d9858286016101a3565b92505060206101ea858286016101a3565b9150509250929050565b60006101ff82610206565b9050919050565b600073ffffffffffffffffffffffffffffffffffffffff82169050919050565b61022f816101f4565b811461023a57600080fd5b50565b610af38061024c6000396000f3fe608060405234801561001057600080fd5b50600436106100625760003560e01c8063155dd5ee1461006757806357cccf5414610083578063715018a61461009f5780638c8f95fb146100a95780638da5cb5b146100c5578063f2fde38b146100e3575b600080fd5b610081600480360381019061007c91906106a8565b6100ff565b005b61009d6004803603810190610098919061067f565b610274565b005b6100a7610334565b005b6100c360048036038101906100be91906106a8565b6103bc565b005b6100cd610468565b6040516100da919061078f565b60405180910390f35b6100fd60048036038101906100f8919061067f565b610491565b005b3373ffffffffffffffffffffffffffffffffffffffff16600260009054906101000a900473ffffffffffffffffffffffffffffffffffffffff1673ffffffffffffffffffffffffffffffffffffffff16148061018d57503373ffffffffffffffffffffffffffffffffffffffff16610175610468565b73ffffffffffffffffffffffffffffffffffffffff16145b6101cc576040517f08c379a00000000000000000000000000000000000000000000000000000000081526004016101c3906107ca565b60405180910390fd5b806003541015610211576040517f08c379a00000000000000000000000000000000000000000000000000000000081526004016102089061082a565b60405180910390fd5b3373ffffffffffffffffffffffffffffffffffffffff166108fc829081150290604051600060405180830381858888f19350505050158015610257573d6000803e3d6000fd5b50806003600082825461026a91906108b1565b9250508190555050565b61027c610589565b73ffffffffffffffffffffffffffffffffffffffff1661029a610468565b73ffffffffffffffffffffffffffffffffffffffff16146102f0576040517f08c379a00000000000000000000000000000000000000000000000000000000081526004016102e79061080a565b60405180910390fd5b80600260006101000a81548173ffffffffffffffffffffffffffffffffffffffff021916908373ffffffffffffffffffffffffffffffffffffffff16021790555050565b61033c610589565b73ffffffffffffffffffffffffffffffffffffffff1661035a610468565b73ffffffffffffffffffffffffffffffffffffffff16146103b0576040517f08c379a00000000000000000000000000000000000000000000000000000000081526004016103a79061080a565b60405180910390fd5b6103ba6000610591565b565b600160009054906101000a900473ffffffffffffffffffffffffffffffffffffffff1673ffffffffffffffffffffffffffffffffffffffff163373ffffffffffffffffffffffffffffffffffffffff161461044c576040517f08c379a0000000000000000000000000000000000000000000000000000000008152600401610443906107ea565b60405180910390fd5b806003600082825461045e919061085b565b9250508190555050565b60008060009054906101000a900473ffffffffffffffffffffffffffffffffffffffff16905090565b610499610589565b73ffffffffffffffffffffffffffffffffffffffff166104b7610468565b73ffffffffffffffffffffffffffffffffffffffff161461050d576040517f08c379a00000000000000000000000000000000000000000000000000000000081526004016105049061080a565b60405180910390fd5b600073ffffffffffffffffffffffffffffffffffffffff168173ffffffffffffffffffffffffffffffffffffffff16141561057d576040517f08c379a0000000000000000000000000000000000000000000000000000000008152600401610574906107aa565b60405180910390fd5b61058681610591565b50565b600033905090565b60008060009054906101000a900473ffffffffffffffffffffffffffffffffffffffff169050816000806101000a81548173ffffffffffffffffffffffffffffffffffffffff021916908373ffffffffffffffffffffffffffffffffffffffff1602179055508173ffffffffffffffffffffffffffffffffffffffff168173ffffffffffffffffffffffffffffffffffffffff167f8be0079c531659141344cd1fd0a4f28419497f9722a3daafe3b4186f6b6457e060405160405180910390a35050565b60008135905061066481610a8f565b92915050565b60008135905061067981610aa6565b92915050565b60006020828403121561069157600080fd5b600061069f84828501610655565b91505092915050565b6000602082840312156106ba57600080fd5b60006106c88482850161066a565b91505092915050565b6106da816108e5565b82525050565b60006106ed60268361084a565b91506106f882610950565b604082019050919050565b6000610710602c8361084a565b915061071b8261099f565b604082019050919050565b6000610733602a8361084a565b915061073e826109ee565b604082019050919050565b600061075660208361084a565b915061076182610a3d565b602082019050919050565b600061077960178361084a565b915061078482610a66565b602082019050919050565b60006020820190506107a460008301846106d1565b92915050565b600060208201905081810360008301526107c3816106e0565b9050919050565b600060208201905081810360008301526107e381610703565b9050919050565b6000602082019050818103600083015261080381610726565b9050919050565b6000602082019050818103600083015261082381610749565b9050919050565b600060208201905081810360008301526108438161076c565b9050919050565b600082825260208201905092915050565b600061086682610917565b915061087183610917565b9250827fffffffffffffffffffffffffffffffffffffffffffffffffffffffffffffffff038211156108a6576108a5610921565b5b828201905092915050565b60006108bc82610917565b91506108c783610917565b9250828210156108da576108d9610921565b5b828203905092915050565b60006108f0826108f7565b9050919050565b600073ffffffffffffffffffffffffffffffffffffffff82169050919050565b6000819050919050565b7f4e487b7100000000000000000000000000000000000000000000000000000000600052601160045260246000fd5b7f4f776e61626c653a206e6577206f776e657220697320746865207a65726f206160008201527f6464726573730000000000000000000000000000000000000000000000000000602082015250565b7f4f6e6c79206465706f7369746f727320616e64206f776e65722063616e20776960008201527f7468647261772066756e64730000000000000000000000000000000000000000602082015250565b7f4f6e6c792067756172616e74794f7261636c65436f6e74726163742063616e2060008201527f6c6f636b2066756e647300000000000000000000000000000000000000000000602082015250565b7f4f776e61626c653a2063616c6c6572206973206e6f7420746865206f776e6572600082015250565b7f4e6f7420656e6f756768206c6f636b65642066756e6473000000000000000000600082015250565b610a98816108e5565b8114610aa357600080fd5b50565b610aaf81610917565b8114610aba57600080fd5b5056fea26469706673582212203b000dbb3f5f892e92d724ea49059ea471c6dd00e90720b89700fded0c42435664736f6c63430008040033",
  "linkReferences": {},
  "deployedLinkReferences": {}
}