{
  "_format": "hh-sol-artifact-1",
  "contractName": "GuarantyOracle",
  "sourceName": "src/backend/contracts/GuarantyOracle.sol",
  "abi": [
    {
      "inputs": [],
      "stateMutability": "nonpayable",
      "type": "constructor"
    },
    {
      "anonymous": false,
      "inputs": [
        {
          "indexed": true,
          "internalType": "bytes32",
          "name": "id",
          "type": "bytes32"
        }
      ],
      "name": "ChainlinkCancelled",
      "type": "event"
    },
    {
      "anonymous": false,
      "inputs": [
        {
          "indexed": true,
          "internalType": "bytes32",
          "name": "id",
          "type": "bytes32"
        }
      ],
      "name": "ChainlinkFulfilled",
      "type": "event"
    },
    {
      "anonymous": false,
      "inputs": [
        {
          "indexed": true,
          "internalType": "bytes32",
          "name": "id",
          "type": "bytes32"
        }
      ],
      "name": "ChainlinkRequested",
      "type": "event"
    },
    {
      "anonymous": false,
      "inputs": [
        {
          "indexed": true,
          "internalType": "address",
          "name": "from",
          "type": "address"
        },
        {
          "indexed": true,
          "internalType": "address",
          "name": "to",
          "type": "address"
        }
      ],
      "name": "OwnershipTransferRequested",
      "type": "event"
    },
    {
      "anonymous": false,
      "inputs": [
        {
          "indexed": true,
          "internalType": "address",
          "name": "from",
          "type": "address"
        },
        {
          "indexed": true,
          "internalType": "address",
          "name": "to",
          "type": "address"
        }
      ],
      "name": "OwnershipTransferred",
      "type": "event"
    },
    {
      "anonymous": false,
      "inputs": [
        {
          "indexed": true,
          "internalType": "bytes32",
          "name": "requestId",
          "type": "bytes32"
        },
        {
          "indexed": false,
          "internalType": "uint256",
          "name": "volume",
          "type": "uint256"
        }
      ],
      "name": "RequestVolume",
      "type": "event"
    },
    {
      "inputs": [],
      "name": "acceptOwnership",
      "outputs": [],
      "stateMutability": "nonpayable",
      "type": "function"
    },
    {
      "inputs": [
        {
          "internalType": "string",
          "name": "_clientId",
          "type": "string"
        },
        {
          "internalType": "string",
          "name": "_clientSecret",
          "type": "string"
        },
        {
          "internalType": "string",
          "name": "_grantType",
          "type": "string"
        }
      ],
      "name": "apiAuthenticate",
      "outputs": [
        {
          "internalType": "bytes32",
          "name": "requestId",
          "type": "bytes32"
        }
      ],
      "stateMutability": "nonpayable",
      "type": "function"
    },
    {
      "inputs": [
        {
          "internalType": "string",
          "name": "_contractId",
          "type": "string"
        }
      ],
      "name": "apiGetContractData",
      "outputs": [
        {
          "internalType": "bytes32",
          "name": "requestId",
          "type": "bytes32"
        }
      ],
      "stateMutability": "nonpayable",
      "type": "function"
    },
    {
      "inputs": [],
      "name": "bearerToken",
      "outputs": [
        {
          "internalType": "string",
          "name": "",
          "type": "string"
        }
      ],
      "stateMutability": "view",
      "type": "function"
    },
    {
      "inputs": [
        {
          "internalType": "bytes32",
          "name": "_requestId",
          "type": "bytes32"
        },
        {
          "internalType": "uint256",
          "name": "_ourValue",
          "type": "uint256"
        }
      ],
      "name": "fulfill",
      "outputs": [],
      "stateMutability": "nonpayable",
      "type": "function"
    },
    {
      "inputs": [
        {
          "internalType": "bytes32",
          "name": "_requestId",
          "type": "bytes32"
        },
        {
          "internalType": "string",
          "name": "_bearerToken",
          "type": "string"
        }
      ],
      "name": "fulfillBearer",
      "outputs": [],
      "stateMutability": "nonpayable",
      "type": "function"
    },
    {
      "inputs": [],
      "name": "getBearerToken",
      "outputs": [
        {
          "internalType": "string",
          "name": "",
          "type": "string"
        }
      ],
      "stateMutability": "view",
      "type": "function"
    },
    {
      "inputs": [],
      "name": "getOurValue",
      "outputs": [
        {
          "internalType": "uint256",
          "name": "",
          "type": "uint256"
        }
      ],
      "stateMutability": "view",
      "type": "function"
    },
    {
      "inputs": [],
      "name": "ourValue",
      "outputs": [
        {
          "internalType": "uint256",
          "name": "",
          "type": "uint256"
        }
      ],
      "stateMutability": "view",
      "type": "function"
    },
    {
      "inputs": [],
      "name": "owner",
      "outputs": [
        {
          "internalType": "address",
          "name": "",
          "type": "address"
        }
      ],
      "stateMutability": "view",
      "type": "function"
    },
    {
      "inputs": [
        {
          "internalType": "address",
          "name": "to",
          "type": "address"
        }
      ],
      "name": "transferOwnership",
      "outputs": [],
      "stateMutability": "nonpayable",
      "type": "function"
    },
    {
      "inputs": [],
      "name": "withdrawLink",
      "outputs": [],
      "stateMutability": "nonpayable",
      "type": "function"
    }
  ],
  "bytecode": "0x6080604052600160045560405180602001604052806000815250600b9080519060200190620000309291906200039c565b503480156200003e57600080fd5b50338060008073ffffffffffffffffffffffffffffffffffffffff168273ffffffffffffffffffffffffffffffffffffffff161415620000b5576040517f08c379a0000000000000000000000000000000000000000000000000000000008152600401620000ac906200049a565b60405180910390fd5b81600660006101000a81548173ffffffffffffffffffffffffffffffffffffffff021916908373ffffffffffffffffffffffffffffffffffffffff160217905550600073ffffffffffffffffffffffffffffffffffffffff168173ffffffffffffffffffffffffffffffffffffffff16146200013d576200013c81620001e260201b60201c565b5b5050506200016573326c977e6efc84e512bb9c30f76e30c160ed06fb6200031460201b60201c565b6200018a73cc79157eb46f5624204f47ab42b3906caa40eab76200035860201b60201c565b7f6361393833363663633733313439353762386330313263373266303561656562600981905550600a670de0b6b3a76400006001620001ca919062000527565b620001d69190620004ef565b600a81905550620006a7565b3373ffffffffffffffffffffffffffffffffffffffff168173ffffffffffffffffffffffffffffffffffffffff16141562000254576040517f08c379a00000000000000000000000000000000000000000000000000000000081526004016200024b90620004bc565b60405180910390fd5b80600760006101000a81548173ffffffffffffffffffffffffffffffffffffffff021916908373ffffffffffffffffffffffffffffffffffffffff1602179055508073ffffffffffffffffffffffffffffffffffffffff16600660009054906101000a900473ffffffffffffffffffffffffffffffffffffffff1673ffffffffffffffffffffffffffffffffffffffff167fed8889f560326eb138920d842192f0eb3dd22b4f139c87a2c57538e05bae127860405160405180910390a350565b80600260006101000a81548173ffffffffffffffffffffffffffffffffffffffff021916908373ffffffffffffffffffffffffffffffffffffffff16021790555050565b80600360006101000a81548173ffffffffffffffffffffffffffffffffffffffff021916908373ffffffffffffffffffffffffffffffffffffffff16021790555050565b828054620003aa9062000592565b90600052602060002090601f016020900481019282620003ce57600085556200041a565b82601f10620003e957805160ff19168380011785556200041a565b828001600101855582156200041a579182015b8281111562000419578251825591602001919060010190620003fc565b5b5090506200042991906200042d565b5090565b5b80821115620004485760008160009055506001016200042e565b5090565b60006200045b601883620004de565b9150620004688262000655565b602082019050919050565b600062000482601783620004de565b91506200048f826200067e565b602082019050919050565b60006020820190508181036000830152620004b5816200044c565b9050919050565b60006020820190508181036000830152620004d78162000473565b9050919050565b600082825260208201905092915050565b6000620004fc8262000588565b9150620005098362000588565b9250826200051c576200051b620005f7565b5b828204905092915050565b6000620005348262000588565b9150620005418362000588565b9250817fffffffffffffffffffffffffffffffffffffffffffffffffffffffffffffffff04831182151516156200057d576200057c620005c8565b5b828202905092915050565b6000819050919050565b60006002820490506001821680620005ab57607f821691505b60208210811415620005c257620005c162000626565b5b50919050565b7f4e487b7100000000000000000000000000000000000000000000000000000000600052601160045260246000fd5b7f4e487b7100000000000000000000000000000000000000000000000000000000600052601260045260246000fd5b7f4e487b7100000000000000000000000000000000000000000000000000000000600052602260045260246000fd5b7f43616e6e6f7420736574206f776e657220746f207a65726f0000000000000000600082015250565b7f43616e6e6f74207472616e7366657220746f2073656c66000000000000000000600082015250565b61299f80620006b76000396000f3fe608060405234801561001057600080fd5b50600436106100b45760003560e01c8063832d470e11610071578063832d470e146101695780638da5cb5b146101995780638dc654a2146101b7578063e7326433146101c1578063f22890e0146101df578063f2fde38b146101fb576100b4565b80631157f100146100b95780634357855e146100d757806374a4a85d146100f35780637810e1461461012357806379ba5097146101415780637d4c823c1461014b575b600080fd5b6100c1610217565b6040516100ce9190611fa3565b60405180910390f35b6100f160048036038101906100ec9190611a2c565b6102a9565b005b61010d60048036038101906101089190611a68565b6103ba565b60405161011a9190611f88565b60405180910390f35b61012b610515565b6040516101389190612085565b60405180910390f35b61014961051f565b005b6101536106b6565b6040516101609190611fa3565b60405180910390f35b610183600480360381019061017e9190611aad565b610744565b6040516101909190611f88565b60405180910390f35b6101a1610877565b6040516101ae9190611e81565b60405180910390f35b6101bf6108a1565b005b6101c9610a0c565b6040516101d69190612085565b60405180910390f35b6101f960048036038101906101f491906119d8565b610a12565b005b61021560048036038101906102109190611986565b610b33565b005b6060600b805461022690612510565b80601f016020809104026020016040519081016040528092919081815260200182805461025290612510565b801561029f5780601f106102745761010080835404028352916020019161029f565b820191906000526020600020905b81548152906001019060200180831161028257829003601f168201915b5050505050905090565b816005600082815260200190815260200160002060009054906101000a900473ffffffffffffffffffffffffffffffffffffffff1673ffffffffffffffffffffffffffffffffffffffff163373ffffffffffffffffffffffffffffffffffffffff161461034b576040517f08c379a000000000000000000000000000000000000000000000000000000000815260040161034290612065565b60405180910390fd5b6005600082815260200190815260200160002060006101000a81549073ffffffffffffffffffffffffffffffffffffffff0219169055807f7cc135e0cebb02c3480ae5d74d377283180a2601f8f644edf7987b009316c63a60405160405180910390a281600881905550505050565b60006103c4610b47565b600083836040516020016103d9929190611e05565b6040516020818303038152906040529050600061040060095430634357855e60e01b610bd9565b905061044c6040518060400160405280600381526020017f67657400000000000000000000000000000000000000000000000000000000008152508383610c0a9092919063ffffffff16565b6104ae6040518060400160405280600481526020017f70617468000000000000000000000000000000000000000000000000000000008152506040518060600160405280602281526020016129486022913983610c0a9092919063ffffffff16565b6000606490506104fe6040518060400160405280600581526020017f74696d65730000000000000000000000000000000000000000000000000000008152508284610c3d9092919063ffffffff16565b61050a82600a54610c70565b935050505092915050565b6000600854905090565b600760009054906101000a900473ffffffffffffffffffffffffffffffffffffffff1673ffffffffffffffffffffffffffffffffffffffff163373ffffffffffffffffffffffffffffffffffffffff16146105af576040517f08c379a00000000000000000000000000000000000000000000000000000000081526004016105a690611fc5565b60405180910390fd5b6000600660009054906101000a900473ffffffffffffffffffffffffffffffffffffffff16905033600660006101000a81548173ffffffffffffffffffffffffffffffffffffffff021916908373ffffffffffffffffffffffffffffffffffffffff1602179055506000600760006101000a81548173ffffffffffffffffffffffffffffffffffffffff021916908373ffffffffffffffffffffffffffffffffffffffff1602179055503373ffffffffffffffffffffffffffffffffffffffff168173ffffffffffffffffffffffffffffffffffffffff167f8be0079c531659141344cd1fd0a4f28419497f9722a3daafe3b4186f6b6457e060405160405180910390a350565b600b80546106c390612510565b80601f01602080910402602001604051908101604052809291908181526020018280546106ef90612510565b801561073c5780601f106107115761010080835404028352916020019161073c565b820191906000526020600020905b81548152906001019060200180831161071f57829003601f168201915b505050505081565b600061074e610b47565b600087878787878760405160200161076b96959493929190611e29565b604051602081830303815290604052905060006107926009543063f22890e060e01b610bd9565b90506107de6040518060400160405280600481526020017f706f7374000000000000000000000000000000000000000000000000000000008152508383610c0a9092919063ffffffff16565b61085d6040518060400160405280600481526020017f70617468000000000000000000000000000000000000000000000000000000008152506040518060400160405280600c81526020017f6163636573735f746f6b656e000000000000000000000000000000000000000081525083610c0a9092919063ffffffff16565b61086981600a54610c70565b925050509695505050505050565b6000600660009054906101000a900473ffffffffffffffffffffffffffffffffffffffff16905090565b6108a9610b47565b60006108b3610ca7565b90508073ffffffffffffffffffffffffffffffffffffffff1663a9059cbb338373ffffffffffffffffffffffffffffffffffffffff166370a08231306040518263ffffffff1660e01b815260040161090b9190611e81565b60206040518083038186803b15801561092357600080fd5b505afa158015610937573d6000803e3d6000fd5b505050506040513d601f19601f8201168201806040525081019061095b9190611b51565b6040518363ffffffff1660e01b8152600401610978929190611e9c565b602060405180830381600087803b15801561099257600080fd5b505af11580156109a6573d6000803e3d6000fd5b505050506040513d601f19601f820116820180604052508101906109ca91906119af565b610a09576040517f08c379a0000000000000000000000000000000000000000000000000000000008152600401610a0090612025565b60405180910390fd5b50565b60085481565b816005600082815260200190815260200160002060009054906101000a900473ffffffffffffffffffffffffffffffffffffffff1673ffffffffffffffffffffffffffffffffffffffff163373ffffffffffffffffffffffffffffffffffffffff1614610ab4576040517f08c379a0000000000000000000000000000000000000000000000000000000008152600401610aab90612065565b60405180910390fd5b6005600082815260200190815260200160002060006101000a81549073ffffffffffffffffffffffffffffffffffffffff0219169055807f7cc135e0cebb02c3480ae5d74d377283180a2601f8f644edf7987b009316c63a60405160405180910390a281600b9080519060200190610b2d929190611741565b50505050565b610b3b610b47565b610b4481610cd1565b50565b600660009054906101000a900473ffffffffffffffffffffffffffffffffffffffff1673ffffffffffffffffffffffffffffffffffffffff163373ffffffffffffffffffffffffffffffffffffffff1614610bd7576040517f08c379a0000000000000000000000000000000000000000000000000000000008152600401610bce90612005565b60405180910390fd5b565b610be16117c7565b610be96117c7565b610c0085858584610e00909392919063ffffffff16565b9150509392505050565b610c21828460800151610eb090919063ffffffff16565b610c38818460800151610eb090919063ffffffff16565b505050565b610c54828460800151610eb090919063ffffffff16565b610c6b818460800151610ed590919063ffffffff16565b505050565b6000610c9f600360009054906101000a900473ffffffffffffffffffffffffffffffffffffffff168484610f82565b905092915050565b6000600260009054906101000a900473ffffffffffffffffffffffffffffffffffffffff16905090565b3373ffffffffffffffffffffffffffffffffffffffff168173ffffffffffffffffffffffffffffffffffffffff161415610d40576040517f08c379a0000000000000000000000000000000000000000000000000000000008152600401610d3790612045565b60405180910390fd5b80600760006101000a81548173ffffffffffffffffffffffffffffffffffffffff021916908373ffffffffffffffffffffffffffffffffffffffff1602179055508073ffffffffffffffffffffffffffffffffffffffff16600660009054906101000a900473ffffffffffffffffffffffffffffffffffffffff1673ffffffffffffffffffffffffffffffffffffffff167fed8889f560326eb138920d842192f0eb3dd22b4f139c87a2c57538e05bae127860405160405180910390a350565b610e086117c7565b610e18856080015161010061104e565b508385600001818152505082856020019073ffffffffffffffffffffffffffffffffffffffff16908173ffffffffffffffffffffffffffffffffffffffff16815250508185604001907bffffffffffffffffffffffffffffffffffffffffffffffffffffffff191690817bffffffffffffffffffffffffffffffffffffffffffffffffffffffff191681525050849050949350505050565b610ebd82600383516110b8565b610ed0818361123d90919063ffffffff16565b505050565b7fffffffffffffffffffffffffffffffffffffffffffffffff0000000000000000811215610f0c57610f07828261125f565b610f7e565b67ffffffffffffffff811315610f2b57610f2682826112d6565b610f7d565b60008112610f4457610f3f826000836110b8565b610f7c565b610f7b826001837fffffffffffffffffffffffffffffffffffffffffffffffffffffffffffffffff610f76919061235a565b6110b8565b5b5b5b5050565b6000806004549050600181610f979190612139565b6004819055506000634042994660e01b60008087600001513089604001518760018c6080015160000151604051602401610fd8989796959493929190611ec5565b604051602081830303815290604052907bffffffffffffffffffffffffffffffffffffffffffffffffffffffff19166020820180517bffffffffffffffffffffffffffffffffffffffffffffffffffffffff8381831617835250505050905061104386838684611322565b925050509392505050565b611056611834565b600060208361106591906125a1565b146110915760208261107791906125a1565b602061108391906123ee565b8261108e9190612139565b91505b81836020018181525050604051808452600081528281016020016040525082905092915050565b60178167ffffffffffffffff16116110ef576110e98160058460ff16901b60ff1617846114c690919063ffffffff16565b50611238565b60ff8167ffffffffffffffff16116111455761111e601860058460ff16901b17846114c690919063ffffffff16565b5061113f8167ffffffffffffffff166001856114e69092919063ffffffff16565b50611237565b61ffff8167ffffffffffffffff161161119c57611175601960058460ff16901b17846114c690919063ffffffff16565b506111968167ffffffffffffffff166002856114e69092919063ffffffff16565b50611236565b63ffffffff8167ffffffffffffffff16116111f5576111ce601a60058460ff16901b17846114c690919063ffffffff16565b506111ef8167ffffffffffffffff166004856114e69092919063ffffffff16565b50611235565b611212601b60058460ff16901b17846114c690919063ffffffff16565b506112338167ffffffffffffffff166008856114e69092919063ffffffff16565b505b5b5b5b505050565b611245611834565b61125783846000015151848551611508565b905092915050565b61127d60036005600660ff16901b17836114c690919063ffffffff16565b506112d282827fffffffffffffffffffffffffffffffffffffffffffffffffffffffffffffffff6112ae919061235a565b6040516020016112be9190612085565b6040516020818303038152906040526115f7565b5050565b6112f460026005600660ff16901b17836114c690919063ffffffff16565b5061131e828260405160200161130a9190612085565b6040516020818303038152906040526115f7565b5050565b60003084604051602001611337929190611dd9565b604051602081830303815290604052805190602001209050846005600083815260200190815260200160002060006101000a81548173ffffffffffffffffffffffffffffffffffffffff021916908373ffffffffffffffffffffffffffffffffffffffff160217905550807fb5e6e01e79f91267dc17b4e6314d5d4d03593d2ceee0fbb452b750bd70ea5af960405160405180910390a2600260009054906101000a900473ffffffffffffffffffffffffffffffffffffffff1673ffffffffffffffffffffffffffffffffffffffff16634000aea08685856040518463ffffffff1660e01b815260040161142d93929190611f4a565b602060405180830381600087803b15801561144757600080fd5b505af115801561145b573d6000803e3d6000fd5b505050506040513d601f19601f8201168201806040525081019061147f91906119af565b6114be576040517f08c379a00000000000000000000000000000000000000000000000000000000081526004016114b590611fe5565b60405180910390fd5b949350505050565b6114ce611834565b6114de838460000151518461161c565b905092915050565b6114ee611834565b6114ff848560000151518585611673565b90509392505050565b611510611834565b825182111561151e57600080fd5b8460200151828561152f9190612139565b1115611564576115638560026115548860200151888761154f9190612139565b611701565b61155e9190612300565b61171d565b5b6000808651805187602083010193508088870111156115835787860182525b60208701925050505b602084106115ca57805182526020826115a59190612139565b91506020816115b49190612139565b90506020846115c391906123ee565b935061158c565b60006001856020036101000a03905080198251168184511681811785525050508692505050949350505050565b61160482600283516110b8565b611617818361123d90919063ffffffff16565b505050565b611624611834565b8360200151831061164a5761164984600286602001516116449190612300565b61171d565b5b8351805160208583010184815381861415611666576001820183525b5050508390509392505050565b61167b611834565b8460200151848361168c9190612139565b11156116b4576116b385600286856116a49190612139565b6116ae9190612300565b61171d565b5b60006001836101006116c691906121e2565b6116d091906123ee565b905085518386820101858319825116178152815185880111156116f35784870182525b505085915050949350505050565b60008183111561171357829050611717565b8190505b92915050565b600082600001519050611730838361104e565b5061173b838261123d565b50505050565b82805461174d90612510565b90600052602060002090601f01602090048101928261176f57600085556117b6565b82601f1061178857805160ff19168380011785556117b6565b828001600101855582156117b6579182015b828111156117b557825182559160200191906001019061179a565b5b5090506117c3919061184e565b5090565b6040518060a0016040528060008019168152602001600073ffffffffffffffffffffffffffffffffffffffff16815260200160007bffffffffffffffffffffffffffffffffffffffffffffffffffffffff191681526020016000815260200161182e611834565b81525090565b604051806040016040528060608152602001600081525090565b5b8082111561186757600081600090555060010161184f565b5090565b600061187e611879846120c5565b6120a0565b90508281526020810184848401111561189657600080fd5b6118a18482856124ce565b509392505050565b6000813590506118b8816128eb565b92915050565b6000815190506118cd81612902565b92915050565b6000813590506118e281612919565b92915050565b60008083601f8401126118fa57600080fd5b8235905067ffffffffffffffff81111561191357600080fd5b60208301915083600182028301111561192b57600080fd5b9250929050565b600082601f83011261194357600080fd5b813561195384826020860161186b565b91505092915050565b60008135905061196b81612930565b92915050565b60008151905061198081612930565b92915050565b60006020828403121561199857600080fd5b60006119a6848285016118a9565b91505092915050565b6000602082840312156119c157600080fd5b60006119cf848285016118be565b91505092915050565b600080604083850312156119eb57600080fd5b60006119f9858286016118d3565b925050602083013567ffffffffffffffff811115611a1657600080fd5b611a2285828601611932565b9150509250929050565b60008060408385031215611a3f57600080fd5b6000611a4d858286016118d3565b9250506020611a5e8582860161195c565b9150509250929050565b60008060208385031215611a7b57600080fd5b600083013567ffffffffffffffff811115611a9557600080fd5b611aa1858286016118e8565b92509250509250929050565b60008060008060008060608789031215611ac657600080fd5b600087013567ffffffffffffffff811115611ae057600080fd5b611aec89828a016118e8565b9650965050602087013567ffffffffffffffff811115611b0b57600080fd5b611b1789828a016118e8565b9450945050604087013567ffffffffffffffff811115611b3657600080fd5b611b4289828a016118e8565b92509250509295509295509295565b600060208284031215611b6357600080fd5b6000611b7184828501611971565b91505092915050565b611b8381612422565b82525050565b611b9281612440565b82525050565b611ba18161244a565b82525050565b6000611bb2826120f6565b611bbc818561210c565b9350611bcc8185602086016124dd565b611bd58161268e565b840191505092915050565b611bf1611bec826124aa565b612573565b82525050565b6000611c03838561212e565b9350611c108385846124ce565b82840190509392505050565b6000611c2782612101565b611c31818561211d565b9350611c418185602086016124dd565b611c4a8161268e565b840191505092915050565b6000611c6260168361211d565b9150611c6d826126b9565b602082019050919050565b6000611c8560238361211d565b9150611c90826126e2565b604082019050919050565b6000611ca860168361211d565b9150611cb382612731565b602082019050919050565b6000611ccb60398361212e565b9150611cd68261275a565b603982019050919050565b6000611cee600f8361212e565b9150611cf9826127a9565b600f82019050919050565b6000611d1160128361211d565b9150611d1c826127d2565b602082019050919050565b6000611d3460178361211d565b9150611d3f826127fb565b602082019050919050565b6000611d5760288361211d565b9150611d6282612824565b604082019050919050565b6000611d7a60388361212e565b9150611d8582612873565b603882019050919050565b6000611d9d600c8361212e565b9150611da8826128c2565b600c82019050919050565b611dbc816124a0565b82525050565b611dd3611dce826124a0565b612597565b82525050565b6000611de58285611be0565b601482019150611df58284611dc2565b6020820191508190509392505050565b6000611e1082611cbe565b9150611e1d828486611bf7565b91508190509392505050565b6000611e3482611d6d565b9150611e4182888a611bf7565b9150611e4c82611ce1565b9150611e59828688611bf7565b9150611e6482611d90565b9150611e71828486611bf7565b9150819050979650505050505050565b6000602082019050611e966000830184611b7a565b92915050565b6000604082019050611eb16000830185611b7a565b611ebe6020830184611db3565b9392505050565b600061010082019050611edb600083018b611b7a565b611ee8602083018a611db3565b611ef56040830189611b89565b611f026060830188611b7a565b611f0f6080830187611b98565b611f1c60a0830186611db3565b611f2960c0830185611db3565b81810360e0830152611f3b8184611ba7565b90509998505050505050505050565b6000606082019050611f5f6000830186611b7a565b611f6c6020830185611db3565b8181036040830152611f7e8184611ba7565b9050949350505050565b6000602082019050611f9d6000830184611b89565b92915050565b60006020820190508181036000830152611fbd8184611c1c565b905092915050565b60006020820190508181036000830152611fde81611c55565b9050919050565b60006020820190508181036000830152611ffe81611c78565b9050919050565b6000602082019050818103600083015261201e81611c9b565b9050919050565b6000602082019050818103600083015261203e81611d04565b9050919050565b6000602082019050818103600083015261205e81611d27565b9050919050565b6000602082019050818103600083015261207e81611d4a565b9050919050565b600060208201905061209a6000830184611db3565b92915050565b60006120aa6120bb565b90506120b68282612542565b919050565b6000604051905090565b600067ffffffffffffffff8211156120e0576120df61265f565b5b6120e98261268e565b9050602081019050919050565b600081519050919050565b600081519050919050565b600082825260208201905092915050565b600082825260208201905092915050565b600081905092915050565b6000612144826124a0565b915061214f836124a0565b9250827fffffffffffffffffffffffffffffffffffffffffffffffffffffffffffffffff03821115612184576121836125d2565b5b828201905092915050565b6000808291508390505b60018511156121d9578086048111156121b5576121b46125d2565b5b60018516156121c45780820291505b80810290506121d2856126ac565b9450612199565b94509492505050565b60006121ed826124a0565b91506121f8836124a0565b92506122257fffffffffffffffffffffffffffffffffffffffffffffffffffffffffffffffff848461222d565b905092915050565b60008261223d57600190506122f9565b8161224b57600090506122f9565b8160018114612261576002811461226b5761229a565b60019150506122f9565b60ff84111561227d5761227c6125d2565b5b8360020a915084821115612294576122936125d2565b5b506122f9565b5060208310610133831016604e8410600b84101617156122cf5782820a9050838111156122ca576122c96125d2565b5b6122f9565b6122dc848484600161218f565b925090508184048111156122f3576122f26125d2565b5b81810290505b9392505050565b600061230b826124a0565b9150612316836124a0565b9250817fffffffffffffffffffffffffffffffffffffffffffffffffffffffffffffffff048311821515161561234f5761234e6125d2565b5b828202905092915050565b600061236582612476565b915061237083612476565b9250827f8000000000000000000000000000000000000000000000000000000000000000018212600084121516156123ab576123aa6125d2565b5b827f7fffffffffffffffffffffffffffffffffffffffffffffffffffffffffffffff0182136000841216156123e3576123e26125d2565b5b828203905092915050565b60006123f9826124a0565b9150612404836124a0565b925082821015612417576124166125d2565b5b828203905092915050565b600061242d82612480565b9050919050565b60008115159050919050565b6000819050919050565b60007fffffffff0000000000000000000000000000000000000000000000000000000082169050919050565b6000819050919050565b600073ffffffffffffffffffffffffffffffffffffffff82169050919050565b6000819050919050565b60006124b5826124bc565b9050919050565b60006124c782612480565b9050919050565b82818337600083830152505050565b60005b838110156124fb5780820151818401526020810190506124e0565b8381111561250a576000848401525b50505050565b6000600282049050600182168061252857607f821691505b6020821081141561253c5761253b612630565b5b50919050565b61254b8261268e565b810181811067ffffffffffffffff8211171561256a5761256961265f565b5b80604052505050565b600061257e82612585565b9050919050565b60006125908261269f565b9050919050565b6000819050919050565b60006125ac826124a0565b91506125b7836124a0565b9250826125c7576125c6612601565b5b828206905092915050565b7f4e487b7100000000000000000000000000000000000000000000000000000000600052601160045260246000fd5b7f4e487b7100000000000000000000000000000000000000000000000000000000600052601260045260246000fd5b7f4e487b7100000000000000000000000000000000000000000000000000000000600052602260045260246000fd5b7f4e487b7100000000000000000000000000000000000000000000000000000000600052604160045260246000fd5b6000601f19601f8301169050919050565b60008160601b9050919050565b60008160011c9050919050565b7f4d7573742062652070726f706f736564206f776e657200000000000000000000600082015250565b7f756e61626c6520746f207472616e73666572416e6443616c6c20746f206f726160008201527f636c650000000000000000000000000000000000000000000000000000000000602082015250565b7f4f6e6c792063616c6c61626c65206279206f776e657200000000000000000000600082015250565b7f68747470733a2f2f6465762e6170692e6174697362616e6b2e636f6d2e62722f60008201527f6170692f76312f65787465726e616c2f636f6e74726163742f00000000000000602082015250565b7f26636c69656e745f7365637265743d0000000000000000000000000000000000600082015250565b7f556e61626c6520746f207472616e736665720000000000000000000000000000600082015250565b7f43616e6e6f74207472616e7366657220746f2073656c66000000000000000000600082015250565b7f536f75726365206d75737420626520746865206f7261636c65206f662074686560008201527f2072657175657374000000000000000000000000000000000000000000000000602082015250565b7f68747470733a2f2f6465762d617574682e6174697362616e6b2e636f6d2e627260008201527f2f6f61757468322f746f6b656e3f636c69656e745f69643d0000000000000000602082015250565b7f266772616e745f747970653d0000000000000000000000000000000000000000600082015250565b6128f481612422565b81146128ff57600080fd5b50565b61290b81612434565b811461291657600080fd5b50565b61292281612440565b811461292d57600080fd5b50565b612939816124a0565b811461294457600080fd5b5056fe636f6e74726163742c616e74696369706174696f6e4c6973742c6f757256616c7565a2646970667358221220690dad44c2d40d02a7d0bf2921ec133f6fb1da9c2795fa37405649ce36452d5364736f6c63430008040033",
  "linkReferences": {},
  "deployedLinkReferences": {}
}