{
  "_format": "hh-sol-artifact-1",
  "contractName": "GuarantyOracle",
  "sourceName": "src/backend/contracts/GuarantyOracle.sol",
  "abi": [
    {
      "inputs": [],
      "stateMutability": "nonpayable",
      "type": "constructor"
    },
    {
      "anonymous": false,
      "inputs": [
        {
          "indexed": true,
          "internalType": "bytes32",
          "name": "id",
          "type": "bytes32"
        }
      ],
      "name": "ChainlinkCancelled",
      "type": "event"
    },
    {
      "anonymous": false,
      "inputs": [
        {
          "indexed": true,
          "internalType": "bytes32",
          "name": "id",
          "type": "bytes32"
        }
      ],
      "name": "ChainlinkFulfilled",
      "type": "event"
    },
    {
      "anonymous": false,
      "inputs": [
        {
          "indexed": true,
          "internalType": "bytes32",
          "name": "id",
          "type": "bytes32"
        }
      ],
      "name": "ChainlinkRequested",
      "type": "event"
    },
    {
      "anonymous": false,
      "inputs": [
        {
          "indexed": true,
          "internalType": "address",
          "name": "from",
          "type": "address"
        },
        {
          "indexed": true,
          "internalType": "address",
          "name": "to",
          "type": "address"
        }
      ],
      "name": "OwnershipTransferRequested",
      "type": "event"
    },
    {
      "anonymous": false,
      "inputs": [
        {
          "indexed": true,
          "internalType": "address",
          "name": "from",
          "type": "address"
        },
        {
          "indexed": true,
          "internalType": "address",
          "name": "to",
          "type": "address"
        }
      ],
      "name": "OwnershipTransferred",
      "type": "event"
    },
    {
      "anonymous": false,
      "inputs": [
        {
          "indexed": false,
          "internalType": "string",
          "name": "url",
          "type": "string"
        }
      ],
      "name": "RequestContractData",
      "type": "event"
    },
    {
      "anonymous": false,
      "inputs": [
        {
          "indexed": true,
          "internalType": "bytes32",
          "name": "requestId",
          "type": "bytes32"
        },
        {
          "indexed": false,
          "internalType": "uint256",
          "name": "value",
          "type": "uint256"
        }
      ],
      "name": "ResultContractData",
      "type": "event"
    },
    {
      "inputs": [],
      "name": "acceptOwnership",
      "outputs": [],
      "stateMutability": "nonpayable",
      "type": "function"
    },
    {
      "inputs": [
        {
          "internalType": "string",
          "name": "_contractId",
          "type": "string"
        },
        {
          "internalType": "string",
          "name": "_apiUrl",
          "type": "string"
        }
      ],
      "name": "apiGetContractData",
      "outputs": [
        {
          "internalType": "bytes32",
          "name": "requestId",
          "type": "bytes32"
        }
      ],
      "stateMutability": "nonpayable",
      "type": "function"
    },
    {
      "inputs": [
        {
          "internalType": "bytes32",
          "name": "_requestId",
          "type": "bytes32"
        },
        {
          "internalType": "uint256",
          "name": "_ourValue",
          "type": "uint256"
        }
      ],
      "name": "fulfill",
      "outputs": [],
      "stateMutability": "nonpayable",
      "type": "function"
    },
    {
      "inputs": [],
      "name": "getOurValue",
      "outputs": [
        {
          "internalType": "uint256",
          "name": "",
          "type": "uint256"
        }
      ],
      "stateMutability": "view",
      "type": "function"
    },
    {
      "inputs": [],
      "name": "linkBalance",
      "outputs": [
        {
          "internalType": "uint256",
          "name": "",
          "type": "uint256"
        }
      ],
      "stateMutability": "view",
      "type": "function"
    },
    {
      "inputs": [],
      "name": "ourValue",
      "outputs": [
        {
          "internalType": "uint256",
          "name": "",
          "type": "uint256"
        }
      ],
      "stateMutability": "view",
      "type": "function"
    },
    {
      "inputs": [],
      "name": "owner",
      "outputs": [
        {
          "internalType": "address",
          "name": "",
          "type": "address"
        }
      ],
      "stateMutability": "view",
      "type": "function"
    },
    {
      "inputs": [
        {
          "internalType": "address",
          "name": "to",
          "type": "address"
        }
      ],
      "name": "transferOwnership",
      "outputs": [],
      "stateMutability": "nonpayable",
      "type": "function"
    },
    {
      "inputs": [],
      "name": "withdrawLink",
      "outputs": [],
      "stateMutability": "nonpayable",
      "type": "function"
    }
  ],
  "bytecode": "0x608060405260016004553480156200001657600080fd5b50338060008073ffffffffffffffffffffffffffffffffffffffff168273ffffffffffffffffffffffffffffffffffffffff1614156200008d576040517f08c379a00000000000000000000000000000000000000000000000000000000081526004016200008490620003c2565b60405180910390fd5b81600660006101000a81548173ffffffffffffffffffffffffffffffffffffffff021916908373ffffffffffffffffffffffffffffffffffffffff160217905550600073ffffffffffffffffffffffffffffffffffffffff168173ffffffffffffffffffffffffffffffffffffffff161462000115576200011481620001ba60201b60201c565b5b5050506200013d73326c977e6efc84e512bb9c30f76e30c160ed06fb620002ec60201b60201c565b6200016273cc79157eb46f5624204f47ab42b3906caa40eab76200033060201b60201c565b7f6361393833363663633733313439353762386330313263373266303561656562600981905550600a670de0b6b3a76400006001620001a291906200044f565b620001ae919062000417565b600a819055506200056a565b3373ffffffffffffffffffffffffffffffffffffffff168173ffffffffffffffffffffffffffffffffffffffff1614156200022c576040517f08c379a00000000000000000000000000000000000000000000000000000000081526004016200022390620003e4565b60405180910390fd5b80600760006101000a81548173ffffffffffffffffffffffffffffffffffffffff021916908373ffffffffffffffffffffffffffffffffffffffff1602179055508073ffffffffffffffffffffffffffffffffffffffff16600660009054906101000a900473ffffffffffffffffffffffffffffffffffffffff1673ffffffffffffffffffffffffffffffffffffffff167fed8889f560326eb138920d842192f0eb3dd22b4f139c87a2c57538e05bae127860405160405180910390a350565b80600260006101000a81548173ffffffffffffffffffffffffffffffffffffffff021916908373ffffffffffffffffffffffffffffffffffffffff16021790555050565b80600360006101000a81548173ffffffffffffffffffffffffffffffffffffffff021916908373ffffffffffffffffffffffffffffffffffffffff16021790555050565b60006200038360188362000406565b9150620003908262000518565b602082019050919050565b6000620003aa60178362000406565b9150620003b78262000541565b602082019050919050565b60006020820190508181036000830152620003dd8162000374565b9050919050565b60006020820190508181036000830152620003ff816200039b565b9050919050565b600082825260208201905092915050565b60006200042482620004b0565b91506200043183620004b0565b925082620004445762000443620004e9565b5b828204905092915050565b60006200045c82620004b0565b91506200046983620004b0565b9250817fffffffffffffffffffffffffffffffffffffffffffffffffffffffffffffffff0483118215151615620004a557620004a4620004ba565b5b828202905092915050565b6000819050919050565b7f4e487b7100000000000000000000000000000000000000000000000000000000600052601160045260246000fd5b7f4e487b7100000000000000000000000000000000000000000000000000000000600052601260045260246000fd5b7f43616e6e6f7420736574206f776e657220746f207a65726f0000000000000000600082015250565b7f43616e6e6f74207472616e7366657220746f2073656c66000000000000000000600082015250565b611fb8806200057a6000396000f3fe608060405234801561001057600080fd5b50600436106100935760003560e01c80638da5cb5b116100665780638da5cb5b1461010c5780638dc654a21461012a578063c26ecefa14610134578063e732643314610152578063f2fde38b1461017057610093565b80630abdbf88146100985780634357855e146100c85780637810e146146100e457806379ba509714610102575b600080fd5b6100b260048036038101906100ad919061141f565b61018c565b6040516100bf9190611819565b60405180910390f35b6100e260048036038101906100dd91906113e3565b6102f0565b005b6100ec610439565b6040516100f99190611916565b60405180910390f35b61010a610443565b005b6101146105da565b6040516101219190611712565b60405180910390f35b610132610604565b005b61013c61076f565b6040516101499190611916565b60405180910390f35b61015a61080b565b6040516101679190611916565b60405180910390f35b61018a60048036038101906101859190611391565b610811565b005b6000610196610825565b6000838387876040516020016101af94939291906116df565b604051602081830303815290604052905060006101d660095430634357855e60e01b6108b7565b90506102226040518060400160405280600381526020017f676574000000000000000000000000000000000000000000000000000000000081525083836108e89092919063ffffffff16565b6102a16040518060400160405280600481526020017f70617468000000000000000000000000000000000000000000000000000000008152506040518060400160405280600881526020017f6f757256616c7565000000000000000000000000000000000000000000000000815250836108e89092919063ffffffff16565b7f86f2be53e9b58b533a5ad657119e2897b2c623d9ab20cbf2e376f2e0676e1639826040516102d09190611834565b60405180910390a16102e481600a5461091b565b92505050949350505050565b816005600082815260200190815260200160002060009054906101000a900473ffffffffffffffffffffffffffffffffffffffff1673ffffffffffffffffffffffffffffffffffffffff163373ffffffffffffffffffffffffffffffffffffffff1614610392576040517f08c379a0000000000000000000000000000000000000000000000000000000008152600401610389906118f6565b60405180910390fd5b6005600082815260200190815260200160002060006101000a81549073ffffffffffffffffffffffffffffffffffffffff0219169055807f7cc135e0cebb02c3480ae5d74d377283180a2601f8f644edf7987b009316c63a60405160405180910390a281600881905550827f9ecadcb47e0955de3c4ffb8f949dc66445ec82d891291ac62050f9b6e19214068360405161042c9190611916565b60405180910390a2505050565b6000600854905090565b600760009054906101000a900473ffffffffffffffffffffffffffffffffffffffff1673ffffffffffffffffffffffffffffffffffffffff163373ffffffffffffffffffffffffffffffffffffffff16146104d3576040517f08c379a00000000000000000000000000000000000000000000000000000000081526004016104ca90611856565b60405180910390fd5b6000600660009054906101000a900473ffffffffffffffffffffffffffffffffffffffff16905033600660006101000a81548173ffffffffffffffffffffffffffffffffffffffff021916908373ffffffffffffffffffffffffffffffffffffffff1602179055506000600760006101000a81548173ffffffffffffffffffffffffffffffffffffffff021916908373ffffffffffffffffffffffffffffffffffffffff1602179055503373ffffffffffffffffffffffffffffffffffffffff168173ffffffffffffffffffffffffffffffffffffffff167f8be0079c531659141344cd1fd0a4f28419497f9722a3daafe3b4186f6b6457e060405160405180910390a350565b6000600660009054906101000a900473ffffffffffffffffffffffffffffffffffffffff16905090565b61060c610825565b6000610616610952565b90508073ffffffffffffffffffffffffffffffffffffffff1663a9059cbb338373ffffffffffffffffffffffffffffffffffffffff166370a08231306040518263ffffffff1660e01b815260040161066e9190611712565b60206040518083038186803b15801561068657600080fd5b505afa15801561069a573d6000803e3d6000fd5b505050506040513d601f19601f820116820180604052508101906106be9190611494565b6040518363ffffffff1660e01b81526004016106db92919061172d565b602060405180830381600087803b1580156106f557600080fd5b505af1158015610709573d6000803e3d6000fd5b505050506040513d601f19601f8201168201806040525081019061072d91906113ba565b61076c576040517f08c379a0000000000000000000000000000000000000000000000000000000008152600401610763906118b6565b60405180910390fd5b50565b60008061077a610952565b90508073ffffffffffffffffffffffffffffffffffffffff166370a08231306040518263ffffffff1660e01b81526004016107b59190611712565b60206040518083038186803b1580156107cd57600080fd5b505afa1580156107e1573d6000803e3d6000fd5b505050506040513d601f19601f820116820180604052508101906108059190611494565b91505090565b60085481565b610819610825565b6108228161097c565b50565b600660009054906101000a900473ffffffffffffffffffffffffffffffffffffffff1673ffffffffffffffffffffffffffffffffffffffff163373ffffffffffffffffffffffffffffffffffffffff16146108b5576040517f08c379a00000000000000000000000000000000000000000000000000000000081526004016108ac90611896565b60405180910390fd5b565b6108bf611257565b6108c7611257565b6108de85858584610aab909392919063ffffffff16565b9150509392505050565b6108ff828460800151610b5b90919063ffffffff16565b610916818460800151610b5b90919063ffffffff16565b505050565b600061094a600360009054906101000a900473ffffffffffffffffffffffffffffffffffffffff168484610b80565b905092915050565b6000600260009054906101000a900473ffffffffffffffffffffffffffffffffffffffff16905090565b3373ffffffffffffffffffffffffffffffffffffffff168173ffffffffffffffffffffffffffffffffffffffff1614156109eb576040517f08c379a00000000000000000000000000000000000000000000000000000000081526004016109e2906118d6565b60405180910390fd5b80600760006101000a81548173ffffffffffffffffffffffffffffffffffffffff021916908373ffffffffffffffffffffffffffffffffffffffff1602179055508073ffffffffffffffffffffffffffffffffffffffff16600660009054906101000a900473ffffffffffffffffffffffffffffffffffffffff1673ffffffffffffffffffffffffffffffffffffffff167fed8889f560326eb138920d842192f0eb3dd22b4f139c87a2c57538e05bae127860405160405180910390a350565b610ab3611257565b610ac38560800151610100610c4c565b508385600001818152505082856020019073ffffffffffffffffffffffffffffffffffffffff16908173ffffffffffffffffffffffffffffffffffffffff16815250508185604001907bffffffffffffffffffffffffffffffffffffffffffffffffffffffff191690817bffffffffffffffffffffffffffffffffffffffffffffffffffffffff191681525050849050949350505050565b610b688260038351610cb6565b610b7b8183610e3b90919063ffffffff16565b505050565b6000806004549050600181610b959190611974565b6004819055506000634042994660e01b60008087600001513089604001518760018c6080015160000151604051602401610bd6989796959493929190611756565b604051602081830303815290604052907bffffffffffffffffffffffffffffffffffffffffffffffffffffffff19166020820180517bffffffffffffffffffffffffffffffffffffffffffffffffffffffff83818316178352505050509050610c4186838684610e5d565b925050509392505050565b610c546112c4565b6000602083610c639190611cdb565b14610c8f57602082610c759190611cdb565b6020610c819190611b95565b82610c8c9190611974565b91505b81836020018181525050604051808452600081528281016020016040525082905092915050565b60178167ffffffffffffffff1611610ced57610ce78160058460ff16901b60ff16178461100190919063ffffffff16565b50610e36565b60ff8167ffffffffffffffff1611610d4357610d1c601860058460ff16901b178461100190919063ffffffff16565b50610d3d8167ffffffffffffffff166001856110219092919063ffffffff16565b50610e35565b61ffff8167ffffffffffffffff1611610d9a57610d73601960058460ff16901b178461100190919063ffffffff16565b50610d948167ffffffffffffffff166002856110219092919063ffffffff16565b50610e34565b63ffffffff8167ffffffffffffffff1611610df357610dcc601a60058460ff16901b178461100190919063ffffffff16565b50610ded8167ffffffffffffffff166004856110219092919063ffffffff16565b50610e33565b610e10601b60058460ff16901b178461100190919063ffffffff16565b50610e318167ffffffffffffffff166008856110219092919063ffffffff16565b505b5b5b5b505050565b610e436112c4565b610e5583846000015151848551611043565b905092915050565b60003084604051602001610e729291906116b3565b604051602081830303815290604052805190602001209050846005600083815260200190815260200160002060006101000a81548173ffffffffffffffffffffffffffffffffffffffff021916908373ffffffffffffffffffffffffffffffffffffffff160217905550807fb5e6e01e79f91267dc17b4e6314d5d4d03593d2ceee0fbb452b750bd70ea5af960405160405180910390a2600260009054906101000a900473ffffffffffffffffffffffffffffffffffffffff1673ffffffffffffffffffffffffffffffffffffffff16634000aea08685856040518463ffffffff1660e01b8152600401610f68939291906117db565b602060405180830381600087803b158015610f8257600080fd5b505af1158015610f96573d6000803e3d6000fd5b505050506040513d601f19601f82011682018060405250810190610fba91906113ba565b610ff9576040517f08c379a0000000000000000000000000000000000000000000000000000000008152600401610ff090611876565b60405180910390fd5b949350505050565b6110096112c4565b6110198384600001515184611132565b905092915050565b6110296112c4565b61103a848560000151518585611189565b90509392505050565b61104b6112c4565b825182111561105957600080fd5b8460200151828561106a9190611974565b111561109f5761109e85600261108f8860200151888761108a9190611974565b611217565b6110999190611b3b565b611233565b5b6000808651805187602083010193508088870111156110be5787860182525b60208701925050505b6020841061110557805182526020826110e09190611974565b91506020816110ef9190611974565b90506020846110fe9190611b95565b93506110c7565b60006001856020036101000a03905080198251168184511681811785525050508692505050949350505050565b61113a6112c4565b836020015183106111605761115f846002866020015161115a9190611b3b565b611233565b5b835180516020858301018481538186141561117c576001820183525b5050508390509392505050565b6111916112c4565b846020015184836111a29190611974565b11156111ca576111c985600286856111ba9190611974565b6111c49190611b3b565b611233565b5b60006001836101006111dc9190611a1d565b6111e69190611b95565b905085518386820101858319825116178152815185880111156112095784870182525b505085915050949350505050565b6000818311156112295782905061122d565b8190505b92915050565b6000826000015190506112468383610c4c565b506112518382610e3b565b50505050565b6040518060a0016040528060008019168152602001600073ffffffffffffffffffffffffffffffffffffffff16815260200160007bffffffffffffffffffffffffffffffffffffffffffffffffffffffff19168152602001600081526020016112be6112c4565b81525090565b604051806040016040528060608152602001600081525090565b6000813590506112ed81611f26565b92915050565b60008151905061130281611f3d565b92915050565b60008135905061131781611f54565b92915050565b60008083601f84011261132f57600080fd5b8235905067ffffffffffffffff81111561134857600080fd5b60208301915083600182028301111561136057600080fd5b9250929050565b60008135905061137681611f6b565b92915050565b60008151905061138b81611f6b565b92915050565b6000602082840312156113a357600080fd5b60006113b1848285016112de565b91505092915050565b6000602082840312156113cc57600080fd5b60006113da848285016112f3565b91505092915050565b600080604083850312156113f657600080fd5b600061140485828601611308565b925050602061141585828601611367565b9150509250929050565b6000806000806040858703121561143557600080fd5b600085013567ffffffffffffffff81111561144f57600080fd5b61145b8782880161131d565b9450945050602085013567ffffffffffffffff81111561147a57600080fd5b6114868782880161131d565b925092505092959194509250565b6000602082840312156114a657600080fd5b60006114b48482850161137c565b91505092915050565b6114c681611bc9565b82525050565b6114d581611be7565b82525050565b6114e481611bf1565b82525050565b60006114f582611931565b6114ff8185611947565b935061150f818560208601611c7a565b61151881611d6a565b840191505092915050565b61153461152f82611c47565b611cad565b82525050565b60006115468385611969565b9350611553838584611c6b565b82840190509392505050565b600061156a8261193c565b6115748185611958565b9350611584818560208601611c7a565b61158d81611d6a565b840191505092915050565b60006115a5601683611958565b91506115b082611d95565b602082019050919050565b60006115c8602383611958565b91506115d382611dbe565b604082019050919050565b60006115eb601683611958565b91506115f682611e0d565b602082019050919050565b600061160e602383611969565b915061161982611e36565b602382019050919050565b6000611631601283611958565b915061163c82611e85565b602082019050919050565b6000611654601783611958565b915061165f82611eae565b602082019050919050565b6000611677602883611958565b915061168282611ed7565b604082019050919050565b61169681611c3d565b82525050565b6116ad6116a882611c3d565b611cd1565b82525050565b60006116bf8285611523565b6014820191506116cf828461169c565b6020820191508190509392505050565b60006116ec82868861153a565b91506116f782611601565b915061170482848661153a565b915081905095945050505050565b600060208201905061172760008301846114bd565b92915050565b600060408201905061174260008301856114bd565b61174f602083018461168d565b9392505050565b60006101008201905061176c600083018b6114bd565b611779602083018a61168d565b61178660408301896114cc565b61179360608301886114bd565b6117a060808301876114db565b6117ad60a083018661168d565b6117ba60c083018561168d565b81810360e08301526117cc81846114ea565b90509998505050505050505050565b60006060820190506117f060008301866114bd565b6117fd602083018561168d565b818103604083015261180f81846114ea565b9050949350505050565b600060208201905061182e60008301846114cc565b92915050565b6000602082019050818103600083015261184e818461155f565b905092915050565b6000602082019050818103600083015261186f81611598565b9050919050565b6000602082019050818103600083015261188f816115bb565b9050919050565b600060208201905081810360008301526118af816115de565b9050919050565b600060208201905081810360008301526118cf81611624565b9050919050565b600060208201905081810360008301526118ef81611647565b9050919050565b6000602082019050818103600083015261190f8161166a565b9050919050565b600060208201905061192b600083018461168d565b92915050565b600081519050919050565b600081519050919050565b600082825260208201905092915050565b600082825260208201905092915050565b600081905092915050565b600061197f82611c3d565b915061198a83611c3d565b9250827fffffffffffffffffffffffffffffffffffffffffffffffffffffffffffffffff038211156119bf576119be611d0c565b5b828201905092915050565b6000808291508390505b6001851115611a14578086048111156119f0576119ef611d0c565b5b60018516156119ff5780820291505b8081029050611a0d85611d88565b94506119d4565b94509492505050565b6000611a2882611c3d565b9150611a3383611c3d565b9250611a607fffffffffffffffffffffffffffffffffffffffffffffffffffffffffffffffff8484611a68565b905092915050565b600082611a785760019050611b34565b81611a865760009050611b34565b8160018114611a9c5760028114611aa657611ad5565b6001915050611b34565b60ff841115611ab857611ab7611d0c565b5b8360020a915084821115611acf57611ace611d0c565b5b50611b34565b5060208310610133831016604e8410600b8410161715611b0a5782820a905083811115611b0557611b04611d0c565b5b611b34565b611b1784848460016119ca565b92509050818404811115611b2e57611b2d611d0c565b5b81810290505b9392505050565b6000611b4682611c3d565b9150611b5183611c3d565b9250817fffffffffffffffffffffffffffffffffffffffffffffffffffffffffffffffff0483118215151615611b8a57611b89611d0c565b5b828202905092915050565b6000611ba082611c3d565b9150611bab83611c3d565b925082821015611bbe57611bbd611d0c565b5b828203905092915050565b6000611bd482611c1d565b9050919050565b60008115159050919050565b6000819050919050565b60007fffffffff0000000000000000000000000000000000000000000000000000000082169050919050565b600073ffffffffffffffffffffffffffffffffffffffff82169050919050565b6000819050919050565b6000611c5282611c59565b9050919050565b6000611c6482611c1d565b9050919050565b82818337600083830152505050565b60005b83811015611c98578082015181840152602081019050611c7d565b83811115611ca7576000848401525b50505050565b6000611cb882611cbf565b9050919050565b6000611cca82611d7b565b9050919050565b6000819050919050565b6000611ce682611c3d565b9150611cf183611c3d565b925082611d0157611d00611d3b565b5b828206905092915050565b7f4e487b7100000000000000000000000000000000000000000000000000000000600052601160045260246000fd5b7f4e487b7100000000000000000000000000000000000000000000000000000000600052601260045260246000fd5b6000601f19601f8301169050919050565b60008160601b9050919050565b60008160011c9050919050565b7f4d7573742062652070726f706f736564206f776e657200000000000000000000600082015250565b7f756e61626c6520746f207472616e73666572416e6443616c6c20746f206f726160008201527f636c650000000000000000000000000000000000000000000000000000000000602082015250565b7f4f6e6c792063616c6c61626c65206279206f776e657200000000000000000000600082015250565b7f2f6170692f6765745f636f6e74726163745f646174613f636f6e74726163745f60008201527f69643d0000000000000000000000000000000000000000000000000000000000602082015250565b7f556e61626c6520746f207472616e736665720000000000000000000000000000600082015250565b7f43616e6e6f74207472616e7366657220746f2073656c66000000000000000000600082015250565b7f536f75726365206d75737420626520746865206f7261636c65206f662074686560008201527f2072657175657374000000000000000000000000000000000000000000000000602082015250565b611f2f81611bc9565b8114611f3a57600080fd5b50565b611f4681611bdb565b8114611f5157600080fd5b50565b611f5d81611be7565b8114611f6857600080fd5b50565b611f7481611c3d565b8114611f7f57600080fd5b5056fea264697066735822122000ad0a5872fa66fd6bfacc988b8e7b3444bdd97a87cdf5f94fe792a732813f1264736f6c63430008040033",
  "linkReferences": {},
  "deployedLinkReferences": {}
}