{
  "_format": "hh-sol-artifact-1",
  "contractName": "GuarantyOracle",
  "sourceName": "src/backend/contracts/GuarantyOracle.sol",
  "abi": [
    {
      "inputs": [],
      "stateMutability": "nonpayable",
      "type": "constructor"
    },
    {
      "anonymous": false,
      "inputs": [
        {
          "indexed": true,
          "internalType": "bytes32",
          "name": "id",
          "type": "bytes32"
        }
      ],
      "name": "ChainlinkCancelled",
      "type": "event"
    },
    {
      "anonymous": false,
      "inputs": [
        {
          "indexed": true,
          "internalType": "bytes32",
          "name": "id",
          "type": "bytes32"
        }
      ],
      "name": "ChainlinkFulfilled",
      "type": "event"
    },
    {
      "anonymous": false,
      "inputs": [
        {
          "indexed": true,
          "internalType": "bytes32",
          "name": "id",
          "type": "bytes32"
        }
      ],
      "name": "ChainlinkRequested",
      "type": "event"
    },
    {
      "anonymous": false,
      "inputs": [
        {
          "indexed": true,
          "internalType": "address",
          "name": "from",
          "type": "address"
        },
        {
          "indexed": true,
          "internalType": "address",
          "name": "to",
          "type": "address"
        }
      ],
      "name": "OwnershipTransferRequested",
      "type": "event"
    },
    {
      "anonymous": false,
      "inputs": [
        {
          "indexed": true,
          "internalType": "address",
          "name": "from",
          "type": "address"
        },
        {
          "indexed": true,
          "internalType": "address",
          "name": "to",
          "type": "address"
        }
      ],
      "name": "OwnershipTransferred",
      "type": "event"
    },
    {
      "anonymous": false,
      "inputs": [
        {
          "indexed": false,
          "internalType": "string",
          "name": "url",
          "type": "string"
        }
      ],
      "name": "RequestAuthenticate",
      "type": "event"
    },
    {
      "anonymous": false,
      "inputs": [
        {
          "indexed": false,
          "internalType": "string",
          "name": "url",
          "type": "string"
        }
      ],
      "name": "RequestContractData",
      "type": "event"
    },
    {
      "anonymous": false,
      "inputs": [
        {
          "indexed": true,
          "internalType": "bytes32",
          "name": "requestId",
          "type": "bytes32"
        },
        {
          "indexed": false,
          "internalType": "string",
          "name": "token",
          "type": "string"
        }
      ],
      "name": "ResultAuthenticate",
      "type": "event"
    },
    {
      "anonymous": false,
      "inputs": [
        {
          "indexed": true,
          "internalType": "bytes32",
          "name": "requestId",
          "type": "bytes32"
        },
        {
          "indexed": false,
          "internalType": "uint256",
          "name": "value",
          "type": "uint256"
        }
      ],
      "name": "ResultContractData",
      "type": "event"
    },
    {
      "inputs": [],
      "name": "acceptOwnership",
      "outputs": [],
      "stateMutability": "nonpayable",
      "type": "function"
    },
    {
      "inputs": [
        {
          "internalType": "string",
          "name": "_clientId",
          "type": "string"
        },
        {
          "internalType": "string",
          "name": "_clientSecret",
          "type": "string"
        },
        {
          "internalType": "string",
          "name": "_grantType",
          "type": "string"
        }
      ],
      "name": "apiAuthenticate",
      "outputs": [
        {
          "internalType": "bytes32",
          "name": "requestId",
          "type": "bytes32"
        }
      ],
      "stateMutability": "nonpayable",
      "type": "function"
    },
    {
      "inputs": [
        {
          "internalType": "string",
          "name": "_contractId",
          "type": "string"
        }
      ],
      "name": "apiGetContractData",
      "outputs": [
        {
          "internalType": "bytes32",
          "name": "requestId",
          "type": "bytes32"
        }
      ],
      "stateMutability": "nonpayable",
      "type": "function"
    },
    {
      "inputs": [],
      "name": "bearerToken",
      "outputs": [
        {
          "internalType": "string",
          "name": "",
          "type": "string"
        }
      ],
      "stateMutability": "view",
      "type": "function"
    },
    {
      "inputs": [
        {
          "internalType": "bytes32",
          "name": "_requestId",
          "type": "bytes32"
        },
        {
          "internalType": "uint256",
          "name": "_ourValue",
          "type": "uint256"
        }
      ],
      "name": "fulfill",
      "outputs": [],
      "stateMutability": "nonpayable",
      "type": "function"
    },
    {
      "inputs": [
        {
          "internalType": "bytes32",
          "name": "_requestId",
          "type": "bytes32"
        },
        {
          "internalType": "bytes",
          "name": "bytesData",
          "type": "bytes"
        }
      ],
      "name": "fulfillBearer",
      "outputs": [],
      "stateMutability": "nonpayable",
      "type": "function"
    },
    {
      "inputs": [],
      "name": "getBearerToken",
      "outputs": [
        {
          "internalType": "string",
          "name": "",
          "type": "string"
        }
      ],
      "stateMutability": "view",
      "type": "function"
    },
    {
      "inputs": [],
      "name": "getOurValue",
      "outputs": [
        {
          "internalType": "uint256",
          "name": "",
          "type": "uint256"
        }
      ],
      "stateMutability": "view",
      "type": "function"
    },
    {
      "inputs": [],
      "name": "linkBalance",
      "outputs": [
        {
          "internalType": "uint256",
          "name": "",
          "type": "uint256"
        }
      ],
      "stateMutability": "view",
      "type": "function"
    },
    {
      "inputs": [],
      "name": "ourValue",
      "outputs": [
        {
          "internalType": "uint256",
          "name": "",
          "type": "uint256"
        }
      ],
      "stateMutability": "view",
      "type": "function"
    },
    {
      "inputs": [],
      "name": "owner",
      "outputs": [
        {
          "internalType": "address",
          "name": "",
          "type": "address"
        }
      ],
      "stateMutability": "view",
      "type": "function"
    },
    {
      "inputs": [
        {
          "internalType": "string",
          "name": "_bearerToken",
          "type": "string"
        }
      ],
      "name": "setBearerToken",
      "outputs": [],
      "stateMutability": "nonpayable",
      "type": "function"
    },
    {
      "inputs": [
        {
          "internalType": "address",
          "name": "to",
          "type": "address"
        }
      ],
      "name": "transferOwnership",
      "outputs": [],
      "stateMutability": "nonpayable",
      "type": "function"
    },
    {
      "inputs": [],
      "name": "withdrawLink",
      "outputs": [],
      "stateMutability": "nonpayable",
      "type": "function"
    }
  ],
  "bytecode": "0x6080604052600160045560405180602001604052806000815250600b9080519060200190620000309291906200039c565b503480156200003e57600080fd5b50338060008073ffffffffffffffffffffffffffffffffffffffff168273ffffffffffffffffffffffffffffffffffffffff161415620000b5576040517f08c379a0000000000000000000000000000000000000000000000000000000008152600401620000ac906200049a565b60405180910390fd5b81600660006101000a81548173ffffffffffffffffffffffffffffffffffffffff021916908373ffffffffffffffffffffffffffffffffffffffff160217905550600073ffffffffffffffffffffffffffffffffffffffff168173ffffffffffffffffffffffffffffffffffffffff16146200013d576200013c81620001e260201b60201c565b5b5050506200016573326c977e6efc84e512bb9c30f76e30c160ed06fb6200031460201b60201c565b6200018a73cc79157eb46f5624204f47ab42b3906caa40eab76200035860201b60201c565b7f6361393833363663633733313439353762386330313263373266303561656562600981905550600a670de0b6b3a76400006001620001ca919062000527565b620001d69190620004ef565b600a81905550620006a7565b3373ffffffffffffffffffffffffffffffffffffffff168173ffffffffffffffffffffffffffffffffffffffff16141562000254576040517f08c379a00000000000000000000000000000000000000000000000000000000081526004016200024b90620004bc565b60405180910390fd5b80600760006101000a81548173ffffffffffffffffffffffffffffffffffffffff021916908373ffffffffffffffffffffffffffffffffffffffff1602179055508073ffffffffffffffffffffffffffffffffffffffff16600660009054906101000a900473ffffffffffffffffffffffffffffffffffffffff1673ffffffffffffffffffffffffffffffffffffffff167fed8889f560326eb138920d842192f0eb3dd22b4f139c87a2c57538e05bae127860405160405180910390a350565b80600260006101000a81548173ffffffffffffffffffffffffffffffffffffffff021916908373ffffffffffffffffffffffffffffffffffffffff16021790555050565b80600360006101000a81548173ffffffffffffffffffffffffffffffffffffffff021916908373ffffffffffffffffffffffffffffffffffffffff16021790555050565b828054620003aa9062000592565b90600052602060002090601f016020900481019282620003ce57600085556200041a565b82601f10620003e957805160ff19168380011785556200041a565b828001600101855582156200041a579182015b8281111562000419578251825591602001919060010190620003fc565b5b5090506200042991906200042d565b5090565b5b80821115620004485760008160009055506001016200042e565b5090565b60006200045b601883620004de565b9150620004688262000655565b602082019050919050565b600062000482601783620004de565b91506200048f826200067e565b602082019050919050565b60006020820190508181036000830152620004b5816200044c565b9050919050565b60006020820190508181036000830152620004d78162000473565b9050919050565b600082825260208201905092915050565b6000620004fc8262000588565b9150620005098362000588565b9250826200051c576200051b620005f7565b5b828204905092915050565b6000620005348262000588565b9150620005418362000588565b9250817fffffffffffffffffffffffffffffffffffffffffffffffffffffffffffffffff04831182151516156200057d576200057c620005c8565b5b828202905092915050565b6000819050919050565b60006002820490506001821680620005ab57607f821691505b60208210811415620005c257620005c162000626565b5b50919050565b7f4e487b7100000000000000000000000000000000000000000000000000000000600052601160045260246000fd5b7f4e487b7100000000000000000000000000000000000000000000000000000000600052601260045260246000fd5b7f4e487b7100000000000000000000000000000000000000000000000000000000600052602260045260246000fd5b7f43616e6e6f7420736574206f776e657220746f207a65726f0000000000000000600082015250565b7f43616e6e6f74207472616e7366657220746f2073656c66000000000000000000600082015250565b612d1a80620006b76000396000f3fe608060405234801561001057600080fd5b50600436106100ea5760003560e01c80637d4c823c1161008c5780638dc654a2116100665780638dc654a214610225578063c26ecefa1461022f578063e73264331461024d578063f2fde38b1461026b576100ea565b80637d4c823c146101b9578063832d470e146101d75780638da5cb5b14610207576100ea565b8063545866a0116100c8578063545866a01461014557806374a4a85d146101615780637810e1461461019157806379ba5097146101af576100ea565b80631157f100146100ef5780633e4164c31461010d5780634357855e14610129575b600080fd5b6100f7610287565b60405161010491906122e7565b60405180910390f35b61012760048036038101906101229190611c9c565b610319565b005b610143600480360381019061013e9190611cf0565b610473565b005b61015f600480360381019061015a9190611d2c565b6105bc565b005b61017b60048036038101906101769190611d2c565b6105da565b60405161018891906122cc565b60405180910390f35b61019961076c565b6040516101a691906123eb565b60405180910390f35b6101b7610776565b005b6101c161090d565b6040516101ce91906122e7565b60405180910390f35b6101f160048036038101906101ec9190611d71565b61099b565b6040516101fe91906122cc565b60405180910390f35b61020f610b3a565b60405161021c91906121c5565b60405180910390f35b61022d610b64565b005b610237610ccf565b60405161024491906123eb565b60405180910390f35b610255610d6b565b60405161026291906123eb565b60405180910390f35b61028560048036038101906102809190611c4a565b610d71565b005b6060600b80546102969061288b565b80601f01602080910402602001604051908101604052809291908181526020018280546102c29061288b565b801561030f5780601f106102e45761010080835404028352916020019161030f565b820191906000526020600020905b8154815290600101906020018083116102f257829003601f168201915b5050505050905090565b816005600082815260200190815260200160002060009054906101000a900473ffffffffffffffffffffffffffffffffffffffff1673ffffffffffffffffffffffffffffffffffffffff163373ffffffffffffffffffffffffffffffffffffffff16146103bb576040517f08c379a00000000000000000000000000000000000000000000000000000000081526004016103b2906123cb565b60405180910390fd5b6005600082815260200190815260200160002060006101000a81549073ffffffffffffffffffffffffffffffffffffffff0219169055807f7cc135e0cebb02c3480ae5d74d377283180a2601f8f644edf7987b009316c63a60405160405180910390a281600b908051906020019061043492919061197f565b50827fa8a1b127dfb0c0786a8a80a4c49652c4855f00ae8f272efd8e0dc2e4c36c8e50600b6040516104669190612309565b60405180910390a2505050565b816005600082815260200190815260200160002060009054906101000a900473ffffffffffffffffffffffffffffffffffffffff1673ffffffffffffffffffffffffffffffffffffffff163373ffffffffffffffffffffffffffffffffffffffff1614610515576040517f08c379a000000000000000000000000000000000000000000000000000000000815260040161050c906123cb565b60405180910390fd5b6005600082815260200190815260200160002060006101000a81549073ffffffffffffffffffffffffffffffffffffffff0219169055807f7cc135e0cebb02c3480ae5d74d377283180a2601f8f644edf7987b009316c63a60405160405180910390a281600881905550827f9ecadcb47e0955de3c4ffb8f949dc66445ec82d891291ac62050f9b6e1921406836040516105af91906123eb565b60405180910390a2505050565b6105c4610d85565b8181600b91906105d5929190611a05565b505050565b60006105e4610d85565b600083836040516020016105f9929190612149565b6040516020818303038152906040529050600061062060095430634357855e60e01b610e17565b905061066c6040518060400160405280600381526020017f67657400000000000000000000000000000000000000000000000000000000008152508383610e489092919063ffffffff16565b6106ce6040518060400160405280600481526020017f7061746800000000000000000000000000000000000000000000000000000000815250604051806060016040528060228152602001612cc36022913983610e489092919063ffffffff16565b60006064905061071e6040518060400160405280600581526020017f74696d65730000000000000000000000000000000000000000000000000000008152508284610e7b9092919063ffffffff16565b7f86f2be53e9b58b533a5ad657119e2897b2c623d9ab20cbf2e376f2e0676e16398360405161074d91906122e7565b60405180910390a161076182600a54610eae565b935050505092915050565b6000600854905090565b600760009054906101000a900473ffffffffffffffffffffffffffffffffffffffff1673ffffffffffffffffffffffffffffffffffffffff163373ffffffffffffffffffffffffffffffffffffffff1614610806576040517f08c379a00000000000000000000000000000000000000000000000000000000081526004016107fd9061232b565b60405180910390fd5b6000600660009054906101000a900473ffffffffffffffffffffffffffffffffffffffff16905033600660006101000a81548173ffffffffffffffffffffffffffffffffffffffff021916908373ffffffffffffffffffffffffffffffffffffffff1602179055506000600760006101000a81548173ffffffffffffffffffffffffffffffffffffffff021916908373ffffffffffffffffffffffffffffffffffffffff1602179055503373ffffffffffffffffffffffffffffffffffffffff168173ffffffffffffffffffffffffffffffffffffffff167f8be0079c531659141344cd1fd0a4f28419497f9722a3daafe3b4186f6b6457e060405160405180910390a350565b600b805461091a9061288b565b80601f01602080910402602001604051908101604052809291908181526020018280546109469061288b565b80156109935780601f1061096857610100808354040283529160200191610993565b820191906000526020600020905b81548152906001019060200180831161097657829003601f168201915b505050505081565b60006109a5610d85565b60008787878787876040516020016109c29695949392919061216d565b604051602081830303815290604052905060006109e960095430634357855e60e01b610e17565b9050610a6a6040518060400160405280600481526020017f706f7374000000000000000000000000000000000000000000000000000000008152506040518060400160405280601b81526020017f68747470733a2f2f7265717265732e696e2f6170692f7573657273000000000081525083610e489092919063ffffffff16565b610ae96040518060400160405280600481526020017f70617468000000000000000000000000000000000000000000000000000000008152506040518060400160405280600481526020017f706167650000000000000000000000000000000000000000000000000000000081525083610e489092919063ffffffff16565b7fa2ad30eda8c73d0eb81d68e3b5fc6444eb908a5e207e6eb79f53bdc15395b18d82604051610b1891906122e7565b60405180910390a1610b2c81600a54610eae565b925050509695505050505050565b6000600660009054906101000a900473ffffffffffffffffffffffffffffffffffffffff16905090565b610b6c610d85565b6000610b76610ee5565b90508073ffffffffffffffffffffffffffffffffffffffff1663a9059cbb338373ffffffffffffffffffffffffffffffffffffffff166370a08231306040518263ffffffff1660e01b8152600401610bce91906121c5565b60206040518083038186803b158015610be657600080fd5b505afa158015610bfa573d6000803e3d6000fd5b505050506040513d601f19601f82011682018060405250810190610c1e9190611e15565b6040518363ffffffff1660e01b8152600401610c3b9291906121e0565b602060405180830381600087803b158015610c5557600080fd5b505af1158015610c69573d6000803e3d6000fd5b505050506040513d601f19601f82011682018060405250810190610c8d9190611c73565b610ccc576040517f08c379a0000000000000000000000000000000000000000000000000000000008152600401610cc39061238b565b60405180910390fd5b50565b600080610cda610ee5565b90508073ffffffffffffffffffffffffffffffffffffffff166370a08231306040518263ffffffff1660e01b8152600401610d1591906121c5565b60206040518083038186803b158015610d2d57600080fd5b505afa158015610d41573d6000803e3d6000fd5b505050506040513d601f19601f82011682018060405250810190610d659190611e15565b91505090565b60085481565b610d79610d85565b610d8281610f0f565b50565b600660009054906101000a900473ffffffffffffffffffffffffffffffffffffffff1673ffffffffffffffffffffffffffffffffffffffff163373ffffffffffffffffffffffffffffffffffffffff1614610e15576040517f08c379a0000000000000000000000000000000000000000000000000000000008152600401610e0c9061236b565b60405180910390fd5b565b610e1f611a8b565b610e27611a8b565b610e3e8585858461103e909392919063ffffffff16565b9150509392505050565b610e5f8284608001516110ee90919063ffffffff16565b610e768184608001516110ee90919063ffffffff16565b505050565b610e928284608001516110ee90919063ffffffff16565b610ea981846080015161111390919063ffffffff16565b505050565b6000610edd600360009054906101000a900473ffffffffffffffffffffffffffffffffffffffff1684846111c0565b905092915050565b6000600260009054906101000a900473ffffffffffffffffffffffffffffffffffffffff16905090565b3373ffffffffffffffffffffffffffffffffffffffff168173ffffffffffffffffffffffffffffffffffffffff161415610f7e576040517f08c379a0000000000000000000000000000000000000000000000000000000008152600401610f75906123ab565b60405180910390fd5b80600760006101000a81548173ffffffffffffffffffffffffffffffffffffffff021916908373ffffffffffffffffffffffffffffffffffffffff1602179055508073ffffffffffffffffffffffffffffffffffffffff16600660009054906101000a900473ffffffffffffffffffffffffffffffffffffffff1673ffffffffffffffffffffffffffffffffffffffff167fed8889f560326eb138920d842192f0eb3dd22b4f139c87a2c57538e05bae127860405160405180910390a350565b611046611a8b565b611056856080015161010061128c565b508385600001818152505082856020019073ffffffffffffffffffffffffffffffffffffffff16908173ffffffffffffffffffffffffffffffffffffffff16815250508185604001907bffffffffffffffffffffffffffffffffffffffffffffffffffffffff191690817bffffffffffffffffffffffffffffffffffffffffffffffffffffffff191681525050849050949350505050565b6110fb82600383516112f6565b61110e818361147b90919063ffffffff16565b505050565b7fffffffffffffffffffffffffffffffffffffffffffffffff000000000000000081121561114a57611145828261149d565b6111bc565b67ffffffffffffffff811315611169576111648282611514565b6111bb565b600081126111825761117d826000836112f6565b6111ba565b6111b9826001837fffffffffffffffffffffffffffffffffffffffffffffffffffffffffffffffff6111b491906126d5565b6112f6565b5b5b5b5050565b60008060045490506001816111d591906124b4565b6004819055506000634042994660e01b60008087600001513089604001518760018c6080015160000151604051602401611216989796959493929190612209565b604051602081830303815290604052907bffffffffffffffffffffffffffffffffffffffffffffffffffffffff19166020820180517bffffffffffffffffffffffffffffffffffffffffffffffffffffffff8381831617835250505050905061128186838684611560565b925050509392505050565b611294611af8565b60006020836112a3919061291c565b146112cf576020826112b5919061291c565b60206112c19190612769565b826112cc91906124b4565b91505b81836020018181525050604051808452600081528281016020016040525082905092915050565b60178167ffffffffffffffff161161132d576113278160058460ff16901b60ff16178461170490919063ffffffff16565b50611476565b60ff8167ffffffffffffffff16116113835761135c601860058460ff16901b178461170490919063ffffffff16565b5061137d8167ffffffffffffffff166001856117249092919063ffffffff16565b50611475565b61ffff8167ffffffffffffffff16116113da576113b3601960058460ff16901b178461170490919063ffffffff16565b506113d48167ffffffffffffffff166002856117249092919063ffffffff16565b50611474565b63ffffffff8167ffffffffffffffff16116114335761140c601a60058460ff16901b178461170490919063ffffffff16565b5061142d8167ffffffffffffffff166004856117249092919063ffffffff16565b50611473565b611450601b60058460ff16901b178461170490919063ffffffff16565b506114718167ffffffffffffffff166008856117249092919063ffffffff16565b505b5b5b5b505050565b611483611af8565b61149583846000015151848551611746565b905092915050565b6114bb60036005600660ff16901b178361170490919063ffffffff16565b5061151082827fffffffffffffffffffffffffffffffffffffffffffffffffffffffffffffffff6114ec91906126d5565b6040516020016114fc91906123eb565b604051602081830303815290604052611835565b5050565b61153260026005600660ff16901b178361170490919063ffffffff16565b5061155c828260405160200161154891906123eb565b604051602081830303815290604052611835565b5050565b6000308460405160200161157592919061211d565b604051602081830303815290604052805190602001209050846005600083815260200190815260200160002060006101000a81548173ffffffffffffffffffffffffffffffffffffffff021916908373ffffffffffffffffffffffffffffffffffffffff160217905550807fb5e6e01e79f91267dc17b4e6314d5d4d03593d2ceee0fbb452b750bd70ea5af960405160405180910390a2600260009054906101000a900473ffffffffffffffffffffffffffffffffffffffff1673ffffffffffffffffffffffffffffffffffffffff16634000aea08685856040518463ffffffff1660e01b815260040161166b9392919061228e565b602060405180830381600087803b15801561168557600080fd5b505af1158015611699573d6000803e3d6000fd5b505050506040513d601f19601f820116820180604052508101906116bd9190611c73565b6116fc576040517f08c379a00000000000000000000000000000000000000000000000000000000081526004016116f39061234b565b60405180910390fd5b949350505050565b61170c611af8565b61171c838460000151518461185a565b905092915050565b61172c611af8565b61173d8485600001515185856118b1565b90509392505050565b61174e611af8565b825182111561175c57600080fd5b8460200151828561176d91906124b4565b11156117a2576117a18560026117928860200151888761178d91906124b4565b61193f565b61179c919061267b565b61195b565b5b6000808651805187602083010193508088870111156117c15787860182525b60208701925050505b6020841061180857805182526020826117e391906124b4565b91506020816117f291906124b4565b90506020846118019190612769565b93506117ca565b60006001856020036101000a03905080198251168184511681811785525050508692505050949350505050565b61184282600283516112f6565b611855818361147b90919063ffffffff16565b505050565b611862611af8565b83602001518310611888576118878460028660200151611882919061267b565b61195b565b5b83518051602085830101848153818614156118a4576001820183525b5050508390509392505050565b6118b9611af8565b846020015184836118ca91906124b4565b11156118f2576118f185600286856118e291906124b4565b6118ec919061267b565b61195b565b5b6000600183610100611904919061255d565b61190e9190612769565b905085518386820101858319825116178152815185880111156119315784870182525b505085915050949350505050565b60008183111561195157829050611955565b8190505b92915050565b60008260000151905061196e838361128c565b50611979838261147b565b50505050565b82805461198b9061288b565b90600052602060002090601f0160209004810192826119ad57600085556119f4565b82601f106119c657805160ff19168380011785556119f4565b828001600101855582156119f4579182015b828111156119f35782518255916020019190600101906119d8565b5b509050611a019190611b12565b5090565b828054611a119061288b565b90600052602060002090601f016020900481019282611a335760008555611a7a565b82601f10611a4c57803560ff1916838001178555611a7a565b82800160010185558215611a7a579182015b82811115611a79578235825591602001919060010190611a5e565b5b509050611a879190611b12565b5090565b6040518060a0016040528060008019168152602001600073ffffffffffffffffffffffffffffffffffffffff16815260200160007bffffffffffffffffffffffffffffffffffffffffffffffffffffffff1916815260200160008152602001611af2611af8565b81525090565b604051806040016040528060608152602001600081525090565b5b80821115611b2b576000816000905550600101611b13565b5090565b6000611b42611b3d8461242b565b612406565b905082815260208101848484011115611b5a57600080fd5b611b65848285612849565b509392505050565b600081359050611b7c81612c66565b92915050565b600081519050611b9181612c7d565b92915050565b600081359050611ba681612c94565b92915050565b600082601f830112611bbd57600080fd5b8135611bcd848260208601611b2f565b91505092915050565b60008083601f840112611be857600080fd5b8235905067ffffffffffffffff811115611c0157600080fd5b602083019150836001820283011115611c1957600080fd5b9250929050565b600081359050611c2f81612cab565b92915050565b600081519050611c4481612cab565b92915050565b600060208284031215611c5c57600080fd5b6000611c6a84828501611b6d565b91505092915050565b600060208284031215611c8557600080fd5b6000611c9384828501611b82565b91505092915050565b60008060408385031215611caf57600080fd5b6000611cbd85828601611b97565b925050602083013567ffffffffffffffff811115611cda57600080fd5b611ce685828601611bac565b9150509250929050565b60008060408385031215611d0357600080fd5b6000611d1185828601611b97565b9250506020611d2285828601611c20565b9150509250929050565b60008060208385031215611d3f57600080fd5b600083013567ffffffffffffffff811115611d5957600080fd5b611d6585828601611bd6565b92509250509250929050565b60008060008060008060608789031215611d8a57600080fd5b600087013567ffffffffffffffff811115611da457600080fd5b611db089828a01611bd6565b9650965050602087013567ffffffffffffffff811115611dcf57600080fd5b611ddb89828a01611bd6565b9450945050604087013567ffffffffffffffff811115611dfa57600080fd5b611e0689828a01611bd6565b92509250509295509295509295565b600060208284031215611e2757600080fd5b6000611e3584828501611c35565b91505092915050565b611e478161279d565b82525050565b611e56816127bb565b82525050565b611e65816127c5565b82525050565b6000611e7682612471565b611e808185612487565b9350611e90818560208601612858565b611e9981612a09565b840191505092915050565b611eb5611eb082612825565b6128ee565b82525050565b6000611ec783856124a9565b9350611ed4838584612849565b82840190509392505050565b6000611eeb8261247c565b611ef58185612498565b9350611f05818560208601612858565b611f0e81612a09565b840191505092915050565b60008154611f268161288b565b611f308186612498565b94506001821660008114611f4b5760018114611f5d57611f90565b60ff1983168652602086019350611f90565b611f668561245c565b60005b83811015611f8857815481890152600182019150602081019050611f69565b808801955050505b50505092915050565b6000611fa6601683612498565b9150611fb182612a34565b602082019050919050565b6000611fc9602383612498565b9150611fd482612a5d565b604082019050919050565b6000611fec601683612498565b9150611ff782612aac565b602082019050919050565b600061200f6039836124a9565b915061201a82612ad5565b603982019050919050565b6000612032600f836124a9565b915061203d82612b24565b600f82019050919050565b6000612055601283612498565b915061206082612b4d565b602082019050919050565b6000612078601783612498565b915061208382612b76565b602082019050919050565b600061209b602883612498565b91506120a682612b9f565b604082019050919050565b60006120be6038836124a9565b91506120c982612bee565b603882019050919050565b60006120e1600c836124a9565b91506120ec82612c3d565b600c82019050919050565b6121008161281b565b82525050565b6121176121128261281b565b612912565b82525050565b60006121298285611ea4565b6014820191506121398284612106565b6020820191508190509392505050565b600061215482612002565b9150612161828486611ebb565b91508190509392505050565b6000612178826120b1565b915061218582888a611ebb565b915061219082612025565b915061219d828688611ebb565b91506121a8826120d4565b91506121b5828486611ebb565b9150819050979650505050505050565b60006020820190506121da6000830184611e3e565b92915050565b60006040820190506121f56000830185611e3e565b61220260208301846120f7565b9392505050565b60006101008201905061221f600083018b611e3e565b61222c602083018a6120f7565b6122396040830189611e4d565b6122466060830188611e3e565b6122536080830187611e5c565b61226060a08301866120f7565b61226d60c08301856120f7565b81810360e083015261227f8184611e6b565b90509998505050505050505050565b60006060820190506122a36000830186611e3e565b6122b060208301856120f7565b81810360408301526122c28184611e6b565b9050949350505050565b60006020820190506122e16000830184611e4d565b92915050565b600060208201905081810360008301526123018184611ee0565b905092915050565b600060208201905081810360008301526123238184611f19565b905092915050565b6000602082019050818103600083015261234481611f99565b9050919050565b6000602082019050818103600083015261236481611fbc565b9050919050565b6000602082019050818103600083015261238481611fdf565b9050919050565b600060208201905081810360008301526123a481612048565b9050919050565b600060208201905081810360008301526123c48161206b565b9050919050565b600060208201905081810360008301526123e48161208e565b9050919050565b600060208201905061240060008301846120f7565b92915050565b6000612410612421565b905061241c82826128bd565b919050565b6000604051905090565b600067ffffffffffffffff821115612446576124456129da565b5b61244f82612a09565b9050602081019050919050565b60008190508160005260206000209050919050565b600081519050919050565b600081519050919050565b600082825260208201905092915050565b600082825260208201905092915050565b600081905092915050565b60006124bf8261281b565b91506124ca8361281b565b9250827fffffffffffffffffffffffffffffffffffffffffffffffffffffffffffffffff038211156124ff576124fe61294d565b5b828201905092915050565b6000808291508390505b6001851115612554578086048111156125305761252f61294d565b5b600185161561253f5780820291505b808102905061254d85612a27565b9450612514565b94509492505050565b60006125688261281b565b91506125738361281b565b92506125a07fffffffffffffffffffffffffffffffffffffffffffffffffffffffffffffffff84846125a8565b905092915050565b6000826125b85760019050612674565b816125c65760009050612674565b81600181146125dc57600281146125e657612615565b6001915050612674565b60ff8411156125f8576125f761294d565b5b8360020a91508482111561260f5761260e61294d565b5b50612674565b5060208310610133831016604e8410600b841016171561264a5782820a9050838111156126455761264461294d565b5b612674565b612657848484600161250a565b9250905081840481111561266e5761266d61294d565b5b81810290505b9392505050565b60006126868261281b565b91506126918361281b565b9250817fffffffffffffffffffffffffffffffffffffffffffffffffffffffffffffffff04831182151516156126ca576126c961294d565b5b828202905092915050565b60006126e0826127f1565b91506126eb836127f1565b9250827f8000000000000000000000000000000000000000000000000000000000000000018212600084121516156127265761272561294d565b5b827f7fffffffffffffffffffffffffffffffffffffffffffffffffffffffffffffff01821360008412161561275e5761275d61294d565b5b828203905092915050565b60006127748261281b565b915061277f8361281b565b9250828210156127925761279161294d565b5b828203905092915050565b60006127a8826127fb565b9050919050565b60008115159050919050565b6000819050919050565b60007fffffffff0000000000000000000000000000000000000000000000000000000082169050919050565b6000819050919050565b600073ffffffffffffffffffffffffffffffffffffffff82169050919050565b6000819050919050565b600061283082612837565b9050919050565b6000612842826127fb565b9050919050565b82818337600083830152505050565b60005b8381101561287657808201518184015260208101905061285b565b83811115612885576000848401525b50505050565b600060028204905060018216806128a357607f821691505b602082108114156128b7576128b66129ab565b5b50919050565b6128c682612a09565b810181811067ffffffffffffffff821117156128e5576128e46129da565b5b80604052505050565b60006128f982612900565b9050919050565b600061290b82612a1a565b9050919050565b6000819050919050565b60006129278261281b565b91506129328361281b565b9250826129425761294161297c565b5b828206905092915050565b7f4e487b7100000000000000000000000000000000000000000000000000000000600052601160045260246000fd5b7f4e487b7100000000000000000000000000000000000000000000000000000000600052601260045260246000fd5b7f4e487b7100000000000000000000000000000000000000000000000000000000600052602260045260246000fd5b7f4e487b7100000000000000000000000000000000000000000000000000000000600052604160045260246000fd5b6000601f19601f8301169050919050565b60008160601b9050919050565b60008160011c9050919050565b7f4d7573742062652070726f706f736564206f776e657200000000000000000000600082015250565b7f756e61626c6520746f207472616e73666572416e6443616c6c20746f206f726160008201527f636c650000000000000000000000000000000000000000000000000000000000602082015250565b7f4f6e6c792063616c6c61626c65206279206f776e657200000000000000000000600082015250565b7f68747470733a2f2f6465762e6170692e6174697362616e6b2e636f6d2e62722f60008201527f6170692f76312f65787465726e616c2f636f6e74726163742f00000000000000602082015250565b7f26636c69656e745f7365637265743d0000000000000000000000000000000000600082015250565b7f556e61626c6520746f207472616e736665720000000000000000000000000000600082015250565b7f43616e6e6f74207472616e7366657220746f2073656c66000000000000000000600082015250565b7f536f75726365206d75737420626520746865206f7261636c65206f662074686560008201527f2072657175657374000000000000000000000000000000000000000000000000602082015250565b7f68747470733a2f2f6465762d617574682e6174697362616e6b2e636f6d2e627260008201527f2f6f61757468322f746f6b656e3f636c69656e745f69643d0000000000000000602082015250565b7f266772616e745f747970653d0000000000000000000000000000000000000000600082015250565b612c6f8161279d565b8114612c7a57600080fd5b50565b612c86816127af565b8114612c9157600080fd5b50565b612c9d816127bb565b8114612ca857600080fd5b50565b612cb48161281b565b8114612cbf57600080fd5b5056fe636f6e74726163742c616e74696369706174696f6e4c6973742c6f757256616c7565a26469706673582212208ec445e60a81434a67e4897863c7a30b909bc57b1f199f3cc6ba9ff85128c45264736f6c63430008040033",
  "linkReferences": {},
  "deployedLinkReferences": {}
}